:020000040800F2
:1000000088080020B501000865350008D52E0008D5
:1000100061350008710200089139000800000000F5
:100020000000000000000000000000006D35000826
:100030008D020008000000006935000871350008D5
:10004000CF010008CF010008CF010008CF01000850
:10005000CF010008CF010008CF010008CF01000840
:10006000CF010008CF010008CF010008CF01000830
:10007000CF010008CF0100087502000881020008C6
:10008000CF010008CF010008CF010008CF01000810
:10009000CF010008CF010008CF010008910200083D
:1000A000CF010008CF010008CF010008CF010008F0
:1000B00079350008CF010008CF010008CF01000802
:1000C000CF010008CF010008CF010008CF010008D0
:1000D000CF01000885390008CF010008CF010008D2
:1000E000CF010008CF010008CF01000800F002F89E
:1000F00000F050F814A696E8000CB244B344DA4578
:1001000001D100F047F8BAE80F000FA696E83000DA
:10011000A5EB040504EB0607AAEB0704A7F101070A
:100120004FEA15154FEA3414A4F10104AC4201D38F
:1001300000F030F813F0010F18BFFB1A43F0010371
:1001400000F001F8DBE71847B84F0000D84F000077
:10015000103A24BF78C878C1FAD8520724BF30C8F3
:1001600030C144BF04680C60704700007047000055
:100170000023002400250026103A28BF78C1FBD8B0
:10018000520728BF30C148BF0B6070471FB51FBD65
:1001900010B510BD00F031F81146FFF7F7FF04F07D
:1001A000ADF800F04FF803B4FFF7F2FF03BC00F026
:1001B00057F800000948804709480047FEE7FEE776
:1001C000FEE7FEE7FEE7FEE7FEE7FEE7FEE7FEE707
:1001D00004480549054A064B70470000753500087C
:1001E000ED00000888020020880800208804002014
:1001F00088040020704770477047754600F02CF85F
:10020000AE4605006946534620F00700854618B003
:1002100020B5FFF7DDFFBDE820404FF000064FF0AE
:1002200000074FF000084FF0000BAC46ACE8C009E7
:10023000ACE8C009ACE8C009ACE8C00921F007018E
:100240008D46704710B50446AFF300802046BDE8E8
:100250001040FFF7A8BF00000048704720000020B2
:1002600001491820ABBEFEE72600020070470000DF
:10027000FEE7000040F20410C2F2000000F0C2B835
:1002800040F2B800C2F2000000F0BCB870470000B5
:1002900010B540F28004C2F2000404F108015220BB
:1002A00003F08AFB6179227A0843607152B15220CF
:1002B00003F070FBA1790843A0712020BDE8104035
:1002C00000F018BA04F10C01522003F067FBE17949
:1002D0000843E071522003F05DFBA1790843A0714F
:1002E0000120A4F8090000F01FFBA0612020BDE858
:1002F000104000F0FFB90000EFF3108072B600BFAD
:10030000FEE70000014690F82100022816D1086897
:10031000D1E90FC3026822F00E020260026822F0E7
:1003200001020260012000FA03F2CCF8042081F8F7
:1003300021000020002281F82020704704208863DB
:100340000120002281F820207047000090F8211041
:10035000022923D1026840F2040C1168C4F2020C95
:1003600021F00E01116013682F21C4F202018A42AC
:1003700023F00103136015DD3023C4F202039A4217
:100380001CD04423C4F202039A421BD05823C4F267
:1003900002039A421CD14FF4803321E0042181638F
:1003A000012070470823C4F202039A420ED01C2396
:1003B000C4F202039A420BD1102311E04FF4807370
:1003C0000EE000BF4FF480530AE000BF012307E0B6
:1003D0000CF168014FF080738A4208BF4FF480131C
:1003E0000121CCF8003080F82110416B0022002957
:1003F00080F8202004BF0020704780B58847002087
:1004000080BD000010B5D0E90FCE0168DCF80030E7
:100410000A6823FA0EF35C072AD512F0040427D0E9
:100420000A68920603D40A6822F004020A602F22A6
:10043000C4F20202914240F20402C4F202025BDD05
:100440003023C4F20203994272D04423C4F202035F
:10045000994273D05823C4F20203994240F07A8043
:100460004FF480231360C16A002940F098806FE048
:100470009C0727D512F0020424D00A68920606D4FD
:100480000A6822F00A020A60012280F821202F2245
:10049000C4F20202914240F20402C4F202023BDDC5
:1004A0003023C4F20203994260D04423C4F2020311
:1004B00099425FD05823C4F20203994260D14FF4AD
:1004C000003365E01B0743D512F0080208BF10BDDA
:1004D0000A6822F00E020A60012101FA0EF2CCF83D
:1004E0000420816380F82110016B0022002980F82C
:1004F000202054D12CE000BF0823C4F2020399420B
:1005000022D01C23C4F20203994223D1402313605A
:10051000C16A002943D11BE00823C4F202039942B7
:100520002CD01C23C4F20203994229D120232FE0AE
:100530004FF480631360C16A89BB09E04FF48043C4
:100540001360C16A59BB03E004231360C16A31BB65
:1005500010BD00BF02F168044FF08063A14208BFE4
:100560004FF480031360C16AC9B9F1E74FF4007317
:100570000EE000BF4FF400530AE000BF022307E083
:1005800002F168044FF00073A14208BF4FF400135A
:100590001360816A0022002980F82020D8D0BDE8AD
:1005A00010400847014600284FF0010008BF70477F
:1005B0002DE9F043D1F800C04FF6F873CBF6FD7388
:1005C0004CF6CD426344CCF6CC42A3FB02236FF041
:1005D000030202EA93020023C4F2020301F10C08B1
:1005E000C1E90F320222D1E9019E98E8F00181F8B9
:1005F0002120DCF8002043F6F0739A4342EA090216
:1006000042EA0E0222432A4332433A4342EA0802B4
:10061000CCF8002000228A6381F8210081F8202094
:100620000020BDE8F043704790F820C0BCF1010FF6
:1006300004BF02207047F0B54FF0010E80F820E0B3
:1006400090F821C0BCF1010F26D14FF0020C80F8C8
:1006500021C04FF0000CC0F838C0D0E900C4C56A12
:10066000C66BDCF80070102C27F00107CCF8007086
:10067000006C0EFA00F070600846CCF8043004BF3D
:1006800010460A46CCF80800CCF80C20DCF8000034
:1006900045B140F00E000DE0002180F8201002204E
:1006A000F0BD00BF20F00400CCF80000DCF8000032
:1006B00040F00A00CCF80000DCF8000040F0010037
:1006C000CCF800000020F0BDB0B5044600F02CF9D5
:1006D000054640F20C00C2F200000078611C18BF11
:1006E000044400BF00F020F9401BA042FAD3B0BD83
:1006F0007047000040F21441C4F201010A6802424E
:1007000014BF08607047FFF7F3BF00002DE9F04FFA
:1007100082B00E68002E00F0FD8041F20042C4F26B
:100720000102042340F2004E904208BF03234FF61B
:10073000FF7CC4F2010E009300240123C1F2100CCF
:100740004FF0000A4FF000094BE000BF41F20002F9
:10075000C4F20102009F904208BF022704F00C037C
:100760000F229A402BEA020207FA03F34FEA9A0596
:100770001A4346F825204E6840F20C45F202DEF896
:10078000082054BF22EA080242EA0802C4F2010526
:10079000CEF808202A68B30254BF22EA080242EACF
:1007A00008022A60B303DEF8042054BF22EA0802DC
:1007B00042EA0802F303CEF80420DEF800204FF0EE
:1007C000010354BF22EA080242EA0802CEF80020E0
:1007D0000E680AF1010A36FA0AF204F1040400F084
:1007E000998003FA0AFB16EA0B08F1D04E686645B9
:1007F00012DC122E56D8DFE806F0350B4D49555560
:10080000555555555555555555555545510000BFEC
:10081000D1F80C9046E000BF4FF6FF72C1F2210202
:1008200096420FDC0022C1F2110296421AD0002239
:10083000C1F21202964215D00022C1F22102964264
:1008400010D02FE00022C1F2220296420AD00022EC
:10085000C1F23102964205D00022C1F23202964224
:1008600020D100BF8A684AB1012A14BFC0F814B071
:10087000C0F810B04FF0080914E000BF4FF00409B1
:1008800010E000BFCA6802F104090BE04FF0000954
:1008900008E000BFCA6802F1080903E0CA6802F173
:1008A0000C0900BF02462646B8F5807F24BF0432FB
:1008B000203E17680F25B54027EA050509FA06F618
:1008C00035431560CA79D2067FF582AF41F218032D
:1008D000C4F202031A68AEF57E7642F001021A6095
:1008E0001A6802F001020192019A2AF0030256F8F6
:1008F00002B040F60002C4F20102904208D040F675
:100900000042C4F2010290427FF420AF012725E7A4
:10091000002723E702B0BDE8F08F0000002A08BFDF
:10092000090401617047000040F28020C2F200001B
:1009300000687047002804BF01207047F0B581B0FF
:10094000044690F83D0028B9002084F83C00204679
:1009500000F0E4FD242084F83D002068016821F0C7
:1009600001010160016841F400410160016821F466
:100970000041016000F0FAFF636848F2A16CC0F228
:10098000010C40F60011C0F23D0163453CBF48F246
:100990008041C0F21E01884202D2012001B0F0BDA8
:1009A0004DF68361C4F21B31A0FB01122168970C44
:1009B000D1F804E04FF496762EF03F0545EA9245D3
:1009C0004D60774348F638160D6AC0F24106A7FB22
:1009D000067625F03F07634538BF960C721C3A43F4
:1009E0000A62CA6948F2A0664CF6FF77C0F20106B7
:1009F000B34222EA07020BD801385B00B0FBF3F0E8
:100A000001306FF31F30042898BF04201BE000BFA3
:100A1000A768013857B119277B43B0FBF3F00130C9
:100A20006FF31F3070B100F5804007E003EB430324
:100A3000B0FBF3F001306FF31F3018B100F5004048
:100A400001E000BF01201043C8610868D4E9072312
:100A500020F0C000104318430860886848F2FF3255
:100A600004F10C0790438CCF18431043A6698860AB
:100A7000C86820F0FF0038433043C860086840F081
:100A80000100086000202021206484F83D102063CC
:100A900084F83E0001B0F0BD2DE9F04784B0044673
:100AA00000201F46164689460290FFF73DFF94F846
:100AB0003D10202924D10546206800BF816989079F
:100AC0001AD5FFF731FF411B20681A29F6D3816937
:100AD0008907F3D500202021206384F83D1084F895
:100AE0003E00216C41F02001216484F83C0002208A
:100AF00004B0BDE8F08700BF94F83C10012903D191
:100B0000022004B0BDE8F087012184F83C100168A0
:100B1000C90703D1016841F0010101600168DDF8F6
:100B2000308021F400610160222184F83D10102101
:100B300084F83E100021216466626785618D02277A
:100B4000C0F201072185A7F10211E162E16A0268A2
:100B500011F5803F42F48062026018BF01293DD147
:100B6000016841F48071016020464FF001110022BC
:100B70004346009502F0FCFA50B120680068C005B9
:100B800044BF4FF400702064012004B0BDE8F0873A
:100B90002069B0F5804F27D149F00100C0B221682B
:100BA00042460861204639462B4602F0C7FB002822
:100BB000EAD1208D022861D0012849D0002840F0D8
:100BC000738000200390206841690391816903913B
:100BD0000399016841F40071016071E00829BFD0F8
:100BE000216B1129BCD0BFE7062000EAD916206886
:100BF00006F1F0010161B91D204642462B4602F084
:100C00009DFB0028C0D120685FFA89F10161204670
:100C1000394642462B4602F091FB0028B4D1002011
:100C20000390206800224169434603918169039142
:100C30000399016841F48071016020464FF0011171
:100C4000009502F095FA002897D146F0F100A6E74A
:100C50002068016821F480610160EFF3108072B6B2
:100C600000200390206841690391816903910399F1
:100C7000016841F40071016062B621E020680168FA
:100C800041F400610160EFF3108072B60020039020
:100C9000206841690391816903910399016821F4F6
:100CA0008061016062B60BE02068016841F48061F8
:100CB00001600021039141690391806903900398C9
:100CC000208D002800F0CA8040F214094BF2895AA6
:100CD0000237C2F20009C1F2F84A23260EE000BF33
:100CE00010690870606A218D01306062481E20859D
:100CF000618D01396185010400F0B08080B2032864
:100D00000CD802282CD001284AD1204641462A4638
:100D100002F080FB002800F09C8035E72046414629
:100D20002A4602F077FB00287FF42EAF2068616A24
:100D300000690870606A2268411C208D6162013878
:100D40002085638D013B638553695B07D3D580B2F2
:100D50000328C5D1106820F480601060C0E700BF90
:100D60002046394600224346009502F001FA002849
:100D70007FF40AAFEFF3108072B62068616A0268F0
:100D800042F40072026000690870606A218D0130CF
:100D90006062481E2085608D0138608562B658E02B
:100DA0002046394600224346009502F0E1F900282A
:100DB0007FF4EAAE2068016821F480610160EFF3FE
:100DC000108072B62068616A00690870606A218DBF
:100DD0000130013960622185618D01396185D9F861
:100DE0000010C908A1FB0A12110A7143029102996D
:100DF00001390291029900293CD021684A695207C1
:100E000017D4029A013A0292029A9AB34A69520797
:100E10000FD4029A013A0292029A5AB34A695207CF
:100E200007D4029A013A0292029A1AB34A69520707
:100E3000DDD50A6842F400720A6009690170606ACF
:100E4000218D01306062481E2085608D01386085EB
:100E500062B62068616A006943E700BF202084F819
:100E60003D00002084F83E0084F83C0004B0BDE85A
:100E7000F08700BF00202021206384F83D1084F813
:100E80003E00216C41F02001216462B684F83C00F0
:100E9000012004B0BDE8F0872DE9F04383B01E4681
:100EA000174689460446FFF73FFD94F83D10202978
:100EB00024D10546206800BF816989071AD5FFF74C
:100EC00033FD411B20681A29F6D381698907F3D5C0
:100ED00000202021206384F83D1084F83E00216C1E
:100EE00041F02001216484F83C00022003B0BDE8F9
:100EF000F08300BF94F83C10012903D1022003B015
:100F0000BDE8F083012184F83C100168C90703D1D2
:100F1000016841F001010160016840F2020821F41A
:100F200000610160212184F83D10102184F83E10F9
:100F30000021216467626685618DC0F20108218508
:100F4000A8F10211E162E16A0A9E11F5803F18BF23
:100F500001291DD1016841F48071016020464FF0E4
:100F6000011100223346009502F002F950B12068C9
:100F70000068C00544BF4FF400702064012003B036
:100F8000BDE8F0832069B0F5804F07D1FE2015E061
:100F90000829DFD0216B1229DCD0DFE7062000EA28
:100FA000D9102168F030086108F106012046324668
:100FB0002B4602F0C3F90028E0D1FF20216800EAA7
:100FC000090008612046414632462B4602F0B6F938
:100FD0000028D3D1002002902068416902918069E5
:100FE0000290029806E000BF204631462A4602F0F1
:100FF00061F818BB208D68B3204631462A4602F0BE
:1010000051FAD8B9606A2168024612F8013B0B61B7
:101010006262628D013A6285228D531E23854F697B
:101020007F07E1D51B04DFD0437802300B6160629B
:10103000608D01386085901E2085D5E7206C0428DE
:101040009CD12068016841F400710160012003B067
:10105000BDE8F0832068016841F400710160202040
:1010600084F83D00002084F83E0084F83C0003B082
:10107000BDE8F0832DE9F04F85B004460020994685
:1010800016460F460490FFF74FFC94F83D102029B8
:1010900027D10546206800BF816989071CD5FFF765
:1010A00043FC411B20681A29F6D381698907F3D5CF
:1010B00000202021206384F83D1084F83E00206C3D
:1010C00004F13C0A40F020002064022000218AF84C
:1010D000001005B0BDE8F08FA2461AF83C1F0129A8
:1010E00004D1022005B0BDE8F08F00BF01228AF8CC
:1010F00000200368DDE90F180E9ADB0703D10368AF
:1011000043F001030360036823F4006303602220BB
:1011100084F83D00402084F83E0000202064626294
:101120006185608D394620850020CFF6FF70E06232
:10113000204632464B46CDE9008501F0CDFE18B180
:10114000012005B0BDE8F08F208D022826D00128AF
:101150000ED0002838D10020039020684169039107
:10116000816903910399016841F40071016037E0DE
:101170002068016821F480610160EFF3108072B68D
:1011800000200390206841690391816903910399CC
:10119000016841F40071016062B621E020680168D5
:1011A00041F400610160EFF3108072B600200390FB
:1011B000206841690391816903910399016821F4D1
:1011C0008061016062B60BE02068016841F48061D3
:1011D00001600021039141690391806903900398A4
:1011E000208D002800F0CC80042740F214094BF237
:1011F000895BC0F20107C2F20009C1F2F84B232655
:101200000EE000BF10690870606A218D01306062D5
:10121000481E2085618D01396185010400F0B08090
:1012200080B203280CD802282CD001284AD12046AD
:1012300041462A4602F0EEF8002800F09C807FE745
:10124000204641462A4602F0E5F800287FF478AFB0
:101250002068616A00690870606A2268411C208DFC
:10126000616201382085638D013B638553695B07AB
:10127000D3D580B20328C5D1106820F480601060F7
:10128000C0E700BF2046394600224346009501F0E2
:101290006FFF00287FF454AFEFF3108072B6206820
:1012A000616A026842F40072026000690870606A54
:1012B000218D01306062481E2085608D0138608577
:1012C00062B658E02046394600224346009501F0B8
:1012D0004FFF00287FF434AF2068016821F480615B
:1012E0000160EFF3108072B62068616A00690870CF
:1012F000606A218D0130013960622185618D01397B
:101300006185D9F80010C908A1FB0B12110A7143BD
:101310000491049901390491049900293CD0216871
:101320004A69520717D4049A013A0492049A9AB36C
:101330004A6952070FD4049A013A0492049A5AB3A4
:101340004A69520707D4049A013A0492049A1AB3DC
:101350004A695207DDD50A6842F400720A600969D9
:101360000170606A218D01306062481E2085608DA9
:101370000138608562B62068616A006943E700BF92
:10138000202084F83D00002084F83E0000218AF8E7
:10139000001005B0BDE8F08F00202021206384F804
:1013A0003D1084F83E00206C40F02000206462B6BE
:1013B000012000218AF8001005B0BDE8F08F000080
:1013C0002DE9F04383B0994616460F460446FFF7D1
:1013D000ABFA94F83D10202924D10546206800BFBF
:1013E000816989071AD5FFF79FFA411B20681A29DE
:1013F000F6D381698907F3D500202021206384F882
:101400003D1084F83E00216C41F02001216484F8F5
:101410003C00022003B0BDE8F08300BF94F83C100C
:10142000012903D1022003B0BDE8F083012284F832
:101430003C200368DDE90B180A9ADB0703D1036837
:1014400043F001030360036823F400630360212079
:1014500084F83D00402084F83E0000202064626251
:101460006185608D394620850020CFF6FF70E062EF
:10147000204632464B46CDE9008501F0B7FD18B154
:10148000012003B0BDE8F083208D98B92046414685
:101490002A4601F00FFE88B3206C0428F0D12068A2
:1014A000016841F400710160012003B0BDE8F083E0
:1014B0000004EBD0204641462A4601F0F3FF002805
:1014C000EAD1616A2268084610F8013B1361238D56
:1014D0006062581E2085678D013F678557697F07C9
:1014E000E6D50704E4D048781061881C6062981E35
:1014F0002085618D01396185DAE700BF20680168C8
:1015000041F400710160202084F83D00002084F83F
:101510003E0084F83C0003B0BDE8F08310B586B00F
:10152000006845F60001C4F2000188424FF0000156
:10153000CDE90411CDE9021128D045F20041C4F2F1
:101540000001884246D141F21804C4F20204206826
:1015500002A940F008002060206800F00800019017
:101560000198C0200290122003900220059040F6BE
:101570000040C4F20100FFF7C9F8606840F40010B1
:101580006060606800F4001022E000BF41F21804BF
:10159000C4F20204206802A940F00800206020681C
:1015A00000F00800019001984FF440600290122072
:1015B00003900320059040F60040C4F20100FFF7BD
:1015C000A5F8606840F480006060606800F4800006
:1015D0000190019806B010BD002804BF012070479B
:1015E00070B504460068D4E901124CF6CC430360A0
:1015F00045F25553036041608260FFF795F9216819
:10160000CA68920712D0054641F23D3603E000BF9A
:10161000C86880070AD0FFF787F9401B2168B042ED
:10162000F6D3C8688007F3D0032070BD4AF6AA201D
:101630000860002070BD000001684AF6AA22002060
:101640000A60704740F20C0040F28021C2F20000B4
:10165000C2F2000100780A68104408607047000078
:1016600080B542F20000C4F20200016841F01001AE
:101670000160032000F08CF80F2000F005F800F066
:1016800027F8002080BD000070B540F20C06C2F2C1
:10169000000640F214013278C2F200014FF47A736E
:1016A0000968B3FBF2F20446B1FBF2F1084600F020
:1016B00085FB0F2C4FF0010508D838B94FF0FF30EB
:1016C00021460022002500F037F87460284670BDDE
:1016D00082B041F21800C4F202000168022241F017
:1016E00001010160016801F0010101910199416866
:1016F00041F080514160406800F0805000900098B7
:101700000420C4F20100016862F31A61016002B0B2
:1017100070470000002848BF704700F01F010122F9
:1017200002FA01F11C2202EAD0004EF20012CEF2BF
:10173000000281507047000010B54EF60C5CCEF2EE
:10174000000CDCF80030C3F3022E8EF00704042CEA
:1017500028BF0424BEF103034FF0FF3E0EFA04F449
:1017600038BF0023A14399400EFA03F39A43114373
:1017700000F00F0200F160430901043A03F56443ED
:101780006244002848BF02F10C03197010BD00002C
:101790004EF60C51CEF200010A684FF6FF031A40D4
:1017A00060F30A2242F0806040F0FD7008607047EC
:1017B000002804BF012070472DE9F04381B042F2B8
:1017C0000008C4F202080446D8F800000D4600F0F4
:1017D000070081420CD9D8F8000020F00700284308
:1017E000C8F80000D8F8000000F00700A8426CD14B
:1017F000206841F204098107C4F2020917D54107A4
:1018000005D5D9F8001041F4E061C9F800100107CE
:1018100005D5D9F8001041F46051C9F80010D9F885
:101820000010A26821F0F0011143C9F80010C007B0
:1018300042D1D8F8000000F0070085420CD2D8F859
:10184000000020F007002843C8F80000D8F8000086
:1018500000F00700A84238D12068410707D5D9F821
:101860000010E26821F4E0611143C9F8001000079C
:1018700008D5D9F80000216920F4605040EAC10081
:10188000C9F80000D9F8002002F00C00082841F245
:101890000020C0F27A004DD145F2D703C2F3834154
:1018A000C0F60003595CD20338D440F60010C0F2F1
:1018B0003D0048433EE000BF606859F8041C022820
:1018C00008D0012826D1890306D4012001B0BDE843
:1018D000F08300BF8901F8D5D9F8001021F0030189
:1018E0000843C9F80000FFF71FF8064641F28837A1
:1018F000D9F80000616800F00C00B0EB810F98D0BF
:10190000FFF712F8801BB842F2D9032001B0BDE8FE
:10191000F08300BF8907D8D5DEE700BFD9F80020E3
:1019200045F27A03C2F34042C0F600039A5C484392
:10193000B0FBF2F0D9F8001045F26202C1F30311D6
:10194000C0F60002515C40F2140220FA01F140F2AC
:101950001000C2F200000068C2F200021160FFF73E
:1019600093FE002001B0BDE8F083000040F21400B7
:1019700041F20401C2F20000C4F2020100680968E9
:1019800045F27202C1F30221C0F60002515CC84068
:101990007047000040F2140041F20401C2F200005E
:1019A000C4F202010068096845F27202C1F3C22163
:1019B000C0F60002515CC84070470000002804BF18
:1019C000012070472DE9F04182B00446007841F2D1
:1019D0000006C007C4F202060CD0706800F00C00CC
:1019E000042840F081803068800303D560680028B7
:1019F00000F04681207880071BD5706810F00C0F2E
:101A000009D0706800F00C00082840F087807068EA
:101A1000C00300F183803068800703D52069012866
:101A200040F02E813068616920F0F80040EAC10082
:101A300030602078000713D4207840072CD4E56963
:101A4000002D00F01881706800F00C00082840F0AC
:101A5000A780012D40F00481012002B0BDE8F08193
:101A6000A069002800F084800020C4F242200121F7
:101A7000C0F88014FEF758FF054600BF706A800763
:101A800000F1B280FEF750FF401B0228F6D9032078
:101A900002B0BDE8F08100BFF0695FEAC00808D479
:101AA000F06940F08050F061F06900F080500090E3
:101AB000009847F20007C4F200073868C00549D40F
:101AC000386840F480703860FEF72EFF054600BF8E
:101AD0003868C0053ED4FEF727FF401B6428F7D9BD
:101AE000032002B0BDE8F081706800F00C00082807
:101AF00003D17068C0033FF576AF61683068002994
:101B000000F00C81B1F5A02F00F00081B1F5803F0D
:101B100040F01A8140F480301CE100BF20690028A9
:101B200040F20000C4F2422000F0888001210160F0
:101B3000FEF7FAFE054600BF306880073FF572AF3A
:101B4000FEF7F2FE401B0228F6D9032002B0BDE8E2
:101B5000F08100BFE168306A002900F09D8005290E
:101B600000F09280012940F0AF8040F00100B1E028
:101B70000020C4F242200021C0F88014FEF7D4FEF9
:101B8000054600BF706A80077FF556AFFEF7CCFEB2
:101B9000401B0228F6D9032002B0BDE8F08100BF47
:101BA0000027C4F2422700203866FEF7BDFE022D52
:101BB00005460DD13068800140F1DE80FEF7B4FEAD
:101BC000401B02284FF00300F4D902B0BDE8F081B9
:101BD000306880014FD5FEF7A7FE401B02284FF06A
:101BE0000300F5D9F1E700BF40F21400C2F2000093
:101BF000006844F6D351C1F26201A0FB0101480A1A
:101C0000019000BF00BF0198411E002801913FF4E0
:101C100013AF00BF0198411E002801913FF40CAFA3
:101C200000BF0198411E002801913FF405AF00BF9D
:101C30000198411E00280191E4D1FDE600210160D8
:101C4000FEF772FE054600BF306880077FF5F1AEF3
:101C5000FEF76AFE401B02284FF00300F4D9B4E7F8
:101C60007068216A00F480328A4209D1616A00F406
:101C70007010884204D1002002B0BDE8F08100BF9E
:101C8000012002B0BDE8F08140F004003062306A0B
:101C900040F001001EE000BF20F001003062306A19
:101CA00020F004003062FEF73FFE054641F288371F
:101CB000306A800720D5FEF737FE401BB8424FF050
:101CC0000300F5D981E700BF20F001003062306ADF
:101CD00020F004003062FEF727FE054641F2883707
:101CE000306A800708D4FEF71FFE401BB842F7D9C0
:101CF000032002B0BDE8F081B8F1000F3FF59FAEC0
:101D0000F06920F08050F06199E600BF40F4802037
:101D10003060306840F480301CE000BF20F4803038
:101D20003060306820F480203060FEF7FDFD05460D
:101D3000306880037FF55EAEFEF7F6FD401B642839
:101D40004FF00300F4D940E720F480303060306871
:101D500020F480203060FEF7E7FD05463068800300
:101D60003FF548AEFEF7E0FD401B6428F6D903209E
:101D700002B0BDE8F08100BF206AB0F5803F05D118
:101D80007168A26821F40031114371607168626A60
:101D900021F4741111430843706001203866FEF786
:101DA000C3FD0446306880013FF565AFFEF7BCFD1A
:101DB000001B02284FF00300F4D906E7411E002063
:101DC000B0EB116F1CBF012070474EF21002CEF233
:101DD000000251604EF62351CEF20001F0230B7049
:101DE0000721906011607047704700007047000045
:101DF00090F83C20012A4FF0020236D010B580F84E
:101E00003D200268D2F804E0D2F808C00C682EF039
:101E10007003234340F2FF74C4F20004A2425360F3
:101E20000ADCB2F1804F13D040F20043C4F2000349
:101E30009A420DD011E000BF42F60043C4F2010304
:101E40009A4205D040F60003C4F200039A4204D13E
:101E500049682CF08003194391600121002280F829
:101E60003D1080F83C20BDE810401046704700004F
:101E7000002804BF0120704710B590F83D1031B91B
:101E8000002180F83C10044600F070F82046022142
:101E900080F83D10016840F2FF740B68C4F2000442
:101EA00042F6004CA142C4F2010C15DCB1F1804FA6
:101EB0001AD040F20042C4F20002914214D0A14272
:101EC00018DCB1F1804F1DD040F20042C4F2000294
:101ED000914217D01AE000BF614505D040F60002DC
:101EE000C4F200029142EAD1826823F070031343E6
:101EF000A142E6DD614505D040F60002C4F20002D1
:101F0000914203D1026923F440731343846923F09F
:101F10008002D0F804E0C368224361450A60CB62C6
:101F2000C1F828E002D14269CCF8302001224A6190
:101F30000B69DB0703D00B6923F001030B6180F809
:101F4000462080F83E2080F83F2080F8402080F82E
:101F5000412080F8422080F8432080F8442080F817
:101F6000452080F83D20002010BD00000068B0F141
:101F7000804F18BF704780B582B041F21C00C4F298
:101F800002000168002241F00101016000680021A7
:101F900000F00100019001981C20FFF7CDFB1C20F0
:101FA00002B0BDE88040FFF7B5BB000090F83D10DF
:101FB00001291CBF01207047022180F83D100068F4
:101FC00040F2FF72C168C4F20002904241F0010188
:101FD000C16009DCB0F1804F12D040F20041C4F280
:101FE000000188420CD012E042F60041C4F2010127
:101FF000884205D040F60001C4F20001884206D1B3
:10200000816801F00701062904BF002070470168BC
:1020100041F00101016000207047000090F83C2071
:10202000012A4FF002026CD080B580F83D20D0F834
:1020300000C04FF67772DCF8083023EA0202CCF8D1
:1020400008200B684F2B29DC1F2B45DD202B46D0A9
:10205000302B44D0402B40F0AF80D1F804E0C96869
:10206000DCF82030DCF8202022F00102CCF820201F
:10207000DCF8182022F0F00242EA011123F00A02F3
:1020800042EA0E02CCF81810CCF82020DCF8081038
:1020900041F0470121F0300128E000BF6F2B33DD14
:1020A000B3F5005F74D0B3F5805F21D0702B40F0A2
:1020B0008380D1E901E3C968DCF8082043EA0E0314
:1020C00022F47F4243EA01211143CCF80810DCF8E6
:1020D000081041F0770109E00BB1102B6CD1DCF84E
:1020E000081021F07001194341F00701CCF80810E5
:1020F0000022012180F83D10002180F83C10BDE84D
:1021000080401046704700BF502B21D0602B53D128
:10211000D1F804E0C968DCF82030DCF8202022F097
:102120001002CCF82020DCF8182022F4704242EA99
:10213000013123F0A00242EA0E12CCF81810CCF8BC
:102140002020DCF8081041F0670121F01001CDE7F4
:10215000D1F804E0C968DCF82030DCF8202022F057
:102160000102CCF82020DCF8182022F0F00242EA2C
:10217000011123F00A0242EA0E02CCF81810CCF842
:102180002020DCF8081041F0570121F02001ADE7D4
:10219000D1E901E3C968DCF8082043EA0E0322F420
:1021A0007F4243EA01211143CCF80810DCF8081003
:1021B00041F480419AE700BF01229AE7704700008E
:1021C00070B504460068C5680669B10716D515F0F4
:1021D000020113D06FF002010161012121778069B2
:1021E000800703D02046FFF7E9FF05E0204600F016
:1021F0008FF8204600F08EF800202077700719D560
:1022000015F0040016D020686FF00401016102216E
:102210002177806910F4407F04D02046FFF7CEFF7D
:1022200006E000BF204600F073F8204600F072F888
:1022300000202077300717D515F0080014D020684B
:102240006FF00801016104212177C069800703D084
:102250002046FFF7B3FF05E0204600F059F820467E
:1022600000F058F800202077F00619D515F010007E
:1022700016D020686FF01001016108212177C06934
:1022800010F4407F04D02046FFF798FF06E000BF1F
:10229000204600F03DF8204600F03CF80020207772
:1022A000F00718BF15F0010002D1300609D412E082
:1022B00020686FF001010161204600F02DF8300622
:1022C00009D515F0800006D020686FF0800101610B
:1022D0002046FFF789FD700609D515F0400006D0AD
:1022E00020686FF040010161204600F021F8B0063F
:1022F00058BF70BD15F0200008D021686FF0200293
:1023000020460A61BDE87040FFF770BD70BD000057
:1023100070470000704700000068B0F1804F18BFA0
:10232000704740F28000C2F200000121C170704786
:102330007047000090F84230202B0BD194460A469B
:1023400000294FF0010118BFBCF1000F06D108466B
:10235000704700BF02210846704700BF70B582B0C9
:10236000012101630025222145638262A0F82CC06F
:10237000456480F842100168C36B43F20D7443F664
:102380006D0E43F29156C0F60004C0F6000EC0F682
:102390000006C3E90A4EC3E90C6504310446184639
:1023A0006346FEF741F90195216820460A680192CB
:1023B000496801910199216931B300BF016851E871
:1023C000031F026841F4807142E80313E3B101681E
:1023D00051E8031F026841F4807142E803139BB186
:1023E000016851E8031F026841F4807142E8031359
:1023F00053B1016851E8031F026841F4807142E85B
:102400000313002BDAD100BF016851E8051F0268F1
:1024100041F0010142E80513BBB3016851E8051F13
:10242000026841F0010142E8051373B3016851E805
:10243000051F026841F0010142E805132BB3016852
:1024400051E8051F026841F0010142E80513002B25
:10245000DAD11AE0016851E8051F026841F0400135
:1024600042E80513DBB1016851E8051F026841F03D
:10247000400142E8051393B1016851E8051F026865
:1024800041F0400142E805134BB1016851E8051FD6
:10249000026841F0400142E80513002BDAD1016BDC
:1024A000012933D10021009101680A68009249682E
:1024B00000910099016851E8031F026841F0100182
:1024C00042E80313DBB1016851E8031F026841F0E1
:1024D000100142E8031393B1016851E8031F026839
:1024E00041F0100142E803134BB1016851E8031FAA
:1024F000026841F0100142E80313002BDAD10021F9
:1025000002B0BDE870400846704700BF012102B02C
:10251000BDE8704008467047B0B540F28004C2F292
:1025200000042078FF2809D140F60040C4F20100E1
:10253000012100220125FEF7F1F9657040F23820F3
:10254000C2F2000021460122FFF7F4FEA06B0168F1
:1025500021F004010160B0BD006843F60001C4F23F
:102560000101884218BF704710B584B00021039163
:10257000026840F2800403924268C2F200040392AF
:10258000039A02910268029242680292029A0191B1
:10259000016801220191406821460190019840F2B2
:1025A0003820C2F20000FFF7C5FEA06B016821F0E1
:1025B0000401016004B0BDE810407047B0B582B0BE
:1025C00001680A68CC684B6902F02F05202D04F0E1
:1025D000200505D125B102B0BDE8B04001F052B9E7
:1025E0005FEA027C1EBF03F0010E04F4907313EB4C
:1025F0000E0341D1036BD50618D5012B16D114F06B
:10260000100313D0002201920A6801924A680192D5
:10261000019A496949064BD4818DC28DC38D002B27
:1026200018BF914240F0F48102B0B0BD13062DD521
:1026300014F080032AD090F84120212AF4D1826836
:10264000B2F5805F03D10269002A00F06782026A56
:10265000531C036212784A60C28C013A1304C2848C
:10266000E2D1C86820F08000C860C86840F040002F
:10267000C86002B0B0BD00BFD30718BF14F48073A8
:1026800040F0D080530700F1D380D8E05206CBD57C
:1026900014F04002C8D0CA6822F04002CA6020216B
:1026A00080F8411002B0BDE8B04000F003BC00BFAC
:1026B000C16B0A68526893B2002BB5D0858DAB42CE
:1026C000B2D2C2858969202900F0A180016851E851
:1026D000031F026821F4807142E80313DBB1016833
:1026E00051E8031F026821F4807142E8031393B19B
:1026F000016851E8031F026821F4807142E8031366
:102700004BB1016851E8031F026821F4807142E86F
:102710000313002BDAD1016851E8051F026821F08C
:10272000010142E80513C3B3016851E8051F0268BF
:1027300021F0010142E805137BB3016851E8051F50
:10274000026821F0010142E8051333B3016851E842
:10275000051F026821F0010142E80513002BDAD1C0
:102760001BE000BF016851E8051F026821F040012D
:1027700042E80513DBB1016851E8051F026821F04A
:10278000400142E8051393B1016851E8051F026852
:1027900021F0400142E805134BB1016851E8051FE3
:1027A000026821F0400142E80513002BDAD1202114
:1027B00080F8421000210163016851E8031F02689C
:1027C00021F0100142E80313DBB1016851E8031F57
:1027D000026821F0100142E8031393B1016851E847
:1027E000031F026821F0100142E803134BB1016896
:1027F00051E8031F026821F0100142E80313002B87
:10280000DAD1C16B04460846FDF77CFD2046022163
:102810004163818DC28D891A89B202B0BDE8B04092
:10282000FFF77ABE436C43F001034364530706D5B8
:10283000BEF1000F03D0436C43F0020343649307DF
:1028400006D5BEF1000F03D0436C43F0040343648C
:10285000BCF1000F06D55EEA050303D0436C43F0DC
:1028600008034364436C002B3FF4DEAE920605D5AB
:1028700025B1044601F006F8216820464969426CFA
:1028800001F0400102F00802891800F0B98000BF91
:10289000016851E8031F026821F4907142E80313B4
:1028A000BBB3016851E8031F026821F4907142E84C
:1028B000031373B3016851E8031F026821F4907198
:1028C00042E803132BB3016851E8031F026821F4A7
:1028D000907142E80313002BDAD11AE0016851E845
:1028E000051F026821F0010142E80513DBB1016810
:1028F00051E8051F026821F0010142E8051393B178
:10290000016851E8051F026821F0010142E8051342
:102910004BB1016851E8051F026821F0010142E84E
:102920000513002BDAD1016B012924D1016851E88C
:10293000031F026821F0100142E80313DBB10168B4
:1029400051E8031F026821F0100142E8031393B11C
:10295000016851E8031F026821F0100142E80313E7
:102960004BB1016851E8031F026821F0100142E8F1
:102970000313002BDAD1202180F8421000210163DB
:1029800001684969490640F1C380016851E8051FA3
:10299000026821F0400142E80513DBB1016851E80B
:1029A000051F026821F0400142E8051393B1016858
:1029B00051E8051F026821F0400142E805134BB1C0
:1029C000016851E8051F026821F0400142E8051343
:1029D000002BDAD1C16B002900F09A8043F28552B6
:1029E000C0F60002044608464A63FDF7AFFC002823
:1029F0003FF41AAEE06B416B02B0BDE8B04008474F
:102A00000446FFF7A9FD0020606402B0B0BD00BF1E
:102A1000891A00BF026852E8032F036822F49072FB
:102A200043E80325BDB3026852E8032F036822F48C
:102A3000907243E8032575B3026852E8032F0368D8
:102A400022F4907243E803252DB3026852E8032F65
:102A5000036822F4907243E80325002DDAD11AE0CE
:102A6000026852E8052F036822F0010243E80525B9
:102A7000DDB1026852E8052F036822F0010243E845
:102A8000052595B1026852E8052F036822F001027E
:102A900043E805254DB1026852E8052F036822F08E
:102AA000010243E80525002DDAD1202280F84220DA
:102AB00000220263026852E8032F036822F010022A
:102AC00043E80325DDB1026852E8032F036822F0D2
:102AD000100243E8032595B1026852E8032F03680A
:102AE00022F0100243E803254DB1026852E8032F9B
:102AF000036822F0100243E80325002DDAD10222F8
:102B000089B2426302B0BDE8B040FFF705BD00BF27
:102B100002B0BDE8B040FFF71FBD00BF026A32F847
:102B2000023B6FF35F234B60026295E5002804BF10
:102B30000120704710B5044690F8410028B90020E4
:102B400084F84000204600F063F8242084F8410017
:102B50002068D4E90212C36823F40053C3600369F8
:102B600023F440531A430261D4E904231143C26899
:102B7000194341F20C639A431143C1604169A26950
:102B800021F44071114343F60002C4F20102904265
:102B9000416103D0FEF7EAFE02E000BFFEF7FAFE55
:102BA000D4E90023192148439900B0FBF1F048F221
:102BB0001F5CC5F2EB1CA0FB0C314FF69C7349095E
:102BC000C0F6FF7301FB0300322303EB0010A0FBF0
:102BD0000C03F02000EA531000EB0110C3F3431183
:102BE000084490601069202120F4904010615069E1
:102BF00020F02A005061D06840F40050D0600020DE
:102C0000606484F8411084F84210606310BD0000D5
:102C10002DE9F04186B040F600050446C4F20105F6
:102C2000006805F54051002788420597CDE90377F4
:102C3000029703D006B0BDE8F08100BF41F2180052
:102C4000C4F20200016802AE41F4804101600168F3
:102C500040F2440801F48041019101990168C4F2F5
:102C6000020841F0040101600068314600F00400F0
:102C7000019001984FF4007002900220039003200D
:102C800005902846FDF742FD4FF48060CDE902072C
:102C9000284631460497FDF739FD40F2B80508F1A2
:102CA0001400C2F2000580264FF48051C5E90007E8
:102CB0002846C5E90276C5E90477C5E90671FDF73E
:102CC00071FC002818BFFDF717FBE5636C6240F24A
:102CD0000415C2F20005102000214FF44052C5E94E
:102CE00000802846C5E90216C5E90411C5E90612A7
:102CF000FDF758FC002818BFFDF7FEFA2520022139
:102D00000022A5636C62FEF717FD2520FEF702FD89
:102D100006B0BDE8F0810000704700007047000079
:102D20002DE9F04381B0044690F84100202809D1F4
:102D300000294FF0010018BF002A07D101B0BDE8FB
:102D4000F08300BF022001B0BDE8F0830020606482
:102D500021201D460E4684F841001746FDF7E4FD8C
:102D6000A784E784A1688146B1F5805F02D120691C
:102D700000285DD037460020E28C2168002A5DD013
:102D80006A1C24D0002D4AD0804600BF0868000687
:102D900008D4FDF7C9FDA0EB0900A8427AD8216844
:102DA000C868F3E717B117F8010B04E038F8020B15
:102DB00000276FF35F204860E08C0138E084E08CEE
:102DC0000028E3D13AE000BF0A68120609D40A6875
:102DD000120606D40A6812065CBF0A685FEA02623D
:102DE000F2D51FB117F8012B05E000BF30F8022B18
:102DF00000276FF35F224A60E28C013AE284E28CA2
:102E0000002AE4D11AE000BF30F8022B00276FF34C
:102E10005F224A60E28C013AE284E28C72B10A6875
:102E2000120635D5002FEFD017F8012BF1E700BFC0
:102E300000273046E28C2168002AA1D108684006AC
:102E40001ED42DB3681C14D1086840062AD4086823
:102E5000400627D40868400624D4086840064FF08E
:102E60000000F1D50DE000BF2068C1680068400691
:102E700018D4FDF759FDA0EB0900A842F4D909E0E8
:102E80000020202184F8411001B0BDE8F08300BF8C
:102E9000FDF74AFD0320202184F8411001B0BDE870
:102EA000F08300BF0020202184F8411001B0BDE86C
:102EB000F0830000006843F60001C4F2010188427B
:102EC00018BF704740F21C00C2F2000001210170DF
:102ED00070470000FEE700002DE9F04782B004468D
:102EE00000689A460B9D0A9E0368914643F48062EF
:102EF000026002680F4642F48071016020464FF084
:102F0000011100223346009500F032F950B12068DB
:102F10000068C00544BF4FF400702064032002B075
:102F2000BDE8F08740F202082068C0F2010807F00F
:102F3000FE0707612046414632462B4600F0FEF967
:102F400020B1012002B0BDE8F08700BF0020019051
:102F500020682A46416901918069314601900198B3
:102F6000204600F09FFAB0B92068BAF1010F09D0ED
:102F70004FEA19210161204631462A4600F092FAB3
:102F800048B920685FFA89F10161204631462A4636
:102F900000F088FA60B1206C0428D2D12068016862
:102FA00041F400710160012002B0BDE8F08700BF6C
:102FB000206800220168334641F480710160204698
:102FC0004FF00111009500F0D3F800289FD147F091
:102FD000010C27682046414632462B46C7F810C0F0
:102FE00002B0BDE8F04700F0A9B900002DE9F043B8
:102FF00083B0044600680F4601680A9D0B9E41F4A9
:10300000807199469046016020464FF001110022E0
:103010002B46009600F0ACF850B120680068C0055F
:1030200044BF4FF400702064032003B0BDE8F08378
:10303000206807F0FE0101610221C0F20101204673
:103040002A46334600F07AF920B1012003B0BDE8EA
:10305000F08300BF0020029020683246416902914F
:103060008069294602900298204600F01BFA58B168
:10307000206C0428E9D12068016841F400710160E6
:10308000012003B0BDE8F0832068B9F1010F0AD038
:103090004FEA1821016120462946324600F002FA23
:1030A0000028E5D120685FFA88F10161002003B0B3
:1030B000BDE8F08370B50368044653F8140F400769
:1030C00011D40E46481C29D086BB00BF18684005A5
:1030D00027D4FDF729FC236853F8140F400737D590
:1030E00018684007F2D5002070BD00BF186840077F
:1030F000F9D41868400514D418684007F3D4186848
:1031000040050ED418684007EDD41868400508D46F
:10311000186840074FF0000048BF70BD18684005B0
:10312000E4D56FF480601860042012E0154603E0D7
:1031300053F8140F4007D6D418684005F1D4FDF7B2
:10314000F3FB401B2368B042F2D958694007EFD423
:10315000202000212022216384F83D2084F83E10A5
:10316000226C10432064012084F83C1070BD0000E4
:103170002DE9F041054600681E46144601F47F0221
:1031800001338FB242D0DDF81880B2F5803F40F0B5
:10319000878040693840C01BB0FA80F04009844203
:1031A00040F0C8804EB924E040693840C01BB0FAF6
:1031B00080F04009844240F0BD80FDF7B5FBA0EBF4
:1031C00008012868B142EFD941693940C91BB1FAF9
:1031D00081F149098C42E7D19BE000BF406938404A
:1031E000C01BB0FA80F0400984424FF0000040F06C
:1031F000A280FDF799FB286841693940C91BB1FAE3
:1032000081F149098C42E9D183E000BFB2F5803FEA
:1032100024D100BF41693940C91BB1FA81F1490984
:103220008C4240F0878041693940C91BB1FA81F175
:1032300049098C4240F07E8041693940C91BB1FA8E
:1032400081F149098C4275D141693940C91BB1FAF4
:1032500081F149098C42DDD06CE000BF81693940C1
:10326000C91BB1FA81F149098C4263D181693940A6
:10327000C91BB1FA81F149098C425BD1816939409E
:10328000C91BB1FA81F149098C4253D18169394096
:10329000C91BB1FA81F149098C42DFD04AE000BF75
:1032A00080693840C01BB0FA80F04009844241D1A7
:1032B00046B923E080693840C01BB0FA80F040096D
:1032C000844237D1FDF730FBA0EB08012868B142FA
:1032D000F0D981693940C91BB1FA81F149098C42A1
:1032E000E8D116E080693840C01BB0FA80F0400990
:1032F00084424FF0000018BFBDE8F081FDF714FBD9
:10330000286881693940C91BB1FA81F149098C42A9
:10331000E8D100202021286385F83D1085F83E0083
:10332000296C41F02001296485F83C000120BDE8AA
:10333000F08100BF0020BDE8F0810000F0B581B051
:10334000044600681D4643698FB203EA0701B9428B
:1033500002D1002001B0F0BD4169164601323CD0D7
:10336000490512D47EB300BFFDF7DEFA411B206889
:10337000B14203D941693940B9422BD14169394041
:10338000B942E6D041694905EED5016841F40071C2
:1033900001606FF4806141610420002120222163DB
:1033A00084F83D2084F83E10226C1043206484F899
:1033B0003C10012001B0F0BD41693940B942C8D08C
:1033C00041694905E1D4FDF7AFFA20684169394008
:1033D000B942F1D02020E0E741694905D5D44169DF
:1033E0003940B942B5D041694905CED44169394027
:1033F000B942AED041694905C7D441693940B942A3
:10340000A7D041694905C0D441693940B942E3D1E7
:103410009FE7000070B504460068154650F8143F59
:103420005A063DD40E4629B926E000BF50F8141FB5
:10343000490635D40168C90621D4FDF775FA411B48
:103440002068B142F2D941694906EFD40020202119
:10345000206384F83D1084F83E00206C40F020008A
:1034600018E000BFFDF760FA206850F8141F490605
:10347000ECD50168490613D40168C906F2D56FF08E
:103480001001016000202021206384F83D1084F8A1
:103490003E00206C2064002084F83C00012070BDB8
:1034A000002070BD70B50368044653F8140F000681
:1034B00011D40E46481C29D086BB00BF18684005B1
:1034C00027D4FDF731FA236853F8140F000637D5D7
:1034D00018680006F2D5002070BD00BF186800060D
:1034E000F9D41868400514D418680006F3D4186895
:1034F00040050ED418680006EDD41868400508D4BD
:10350000186800064FF0000048BF70BD18684005FD
:10351000E4D56FF480601860042012E0154603E0E3
:1035200053F8140F0006D6D418684005F1D4FDF7FF
:10353000FBF9401B2368B042F2D958690006EFD46A
:10354000202000212022216384F83D2084F83E10B1
:10355000226C10432064012084F83C1070BD0000F0
:10356000FEE70000FEE70000704700007047000023
:10357000FEF768B87047000040F2F010C2F2000099
:10358000FEF71EBE406A0021C185C184FEF7E4BF7C
:10359000406A01684A6990F84130212B2DD112F020
:1035A00080022AD00021C184016851E8031F02680B
:1035B00021F0C00142E80313DBB1016851E8031FA9
:1035C000026821F0C00142E8031393B1016851E899
:1035D000031F026821F0C00142E803134BB10168E8
:1035E00051E8031F026821F0C00142E80313002BD9
:1035F000DAD1202180F841100168496990F8422011
:10360000222A40F07D8011F0400179D00021C1854F
:10361000016851E8031F026821F4907142E8031326
:10362000BBB3016851E8031F026821F4907142E8BE
:10363000031373B3016851E8031F026821F490710A
:1036400042E803132BB3016851E8031F026821F419
:10365000907142E80313002BDAD11AE0016851E8B7
:10366000051F026821F0010142E80513DBB1016882
:1036700051E8051F026821F0010142E8051393B1EA
:10368000016851E8051F026821F0010142E80513B5
:103690004BB1016851E8051F026821F0010142E8C1
:1036A0000513002BDAD1016B012924D1016851E8FF
:1036B000031F026821F0100142E80313DBB1016827
:1036C00051E8031F026821F0100142E8031393B18F
:1036D000016851E8031F026821F0100142E803135A
:1036E0004BB1016851E8031F026821F0100142E864
:1036F0000313002BDAD1202180F84210002101634E
:10370000416C41F010014164FEF726BF0168406A38
:103710000968890600F19F800021C185016851E890
:10372000031F026821F4807142E80313E3B10168CA
:1037300051E8031F026821F4807142E803139BB132
:10374000016851E8031F026821F4807142E8031305
:1037500053B1016851E8031F026821F4807142E807
:103760000313002BDAD100BF016851E8051F02687E
:1037700021F0010142E80513BBB3016851E8051FC0
:10378000026821F0010142E8051373B3016851E8B2
:10379000051F026821F0010142E805132BB30168FF
:1037A00051E8051F026821F0010142E80513002BD2
:1037B000DAD11AE0016851E8051F026821F04001E2
:1037C00042E80513DBB1016851E8051F026821F0EA
:1037D000400142E8051393B1016851E8051F0268F2
:1037E00021F0400142E805134BB1016851E8051F83
:1037F000026821F0400142E80513002BDAD12021B4
:1038000080F84210016B012925D100BF016851E801
:10381000031F026821F0100142E80313DBB10168C5
:1038200051E8031F026821F0100142E8031393B12D
:10383000016851E8031F026821F0100142E80313F8
:103840004BB1016851E8031F026821F0100142E802
:103850000313002BDAD100214163016B012918BF4A
:10386000FFF75ABA818DFEF757BE0000406A01216A
:103870004163016B012918BFFFF750BA818D4908D8
:10388000FEF74ABE81B090F84210222921D1836808
:103890000246B3F5805F09D152F8281F52F8183C50
:1038A000002B63D003685B680AE000BF52F8281F52
:1038B00013B90369002BF5D003685B6803F07F033D
:1038C0000B70116801311160C18D01390A04C18585
:1038D00002D001B0704700BF0168CA6822F0200220
:1038E000CA60CA6822F48072CA604A6922F0010282
:1038F0004A61202180F8421000214163026B012AB5
:103900003CD10163016851E8031F026821F01001F6
:1039100042E80313DBB1016851E8031F026821F09C
:10392000100142E8031393B1016851E8031F0268D4
:1039300021F0100142E803134BB1016851E8031F65
:10394000026821F0100142E80313002BDAD101686C
:103950000A68D20606D5002200920A6800924968D9
:1039600000910099818D01B0FEF7D6BD02685268C2
:103970006FF35F2221F8022B8162A5E701B0FFF708
:10398000CBB9000040F23820C2F20000FEF716BEAC
:10399000FEE700008621012200F024BA10B582B0B3
:1039A0000C460DF10602962100F0DCF9BDF8061078
:1039B000218002B010BD000010B582B00C46FF217E
:1039C00021700DF10702892100F0B0F99DF8071070
:1039D00001F01F01172905D845F2E702C0F60002E1
:1039E000515C217002B010BD2DE9F04F81B045F25D
:1039F0007C07834600254FF0FF36C0F6000700BF66
:103A0000B819427806F12E0081B2584600F0EAF962
:103A100001365A2E45EA0005F2D158468721402248
:103A200000F0E0F9054364260DF103080DF10209E9
:103A30004FF0010A58463021424600F077F99DF8D0
:103A400003400746584631214A4600F06FF99DF879
:103A50000210074381EA141458464FF00A0145EA60
:103A6000070518BF012700F0B9F92AEA0400013E52
:103A7000384301284FEA066001D10028DAD1F8B1B5
:103A800058468621012200F0ADF98046584687212C
:103A9000002200F0A7F9064658460821092200F046
:103AA000A1F9074658460B21002200F09BF948EA8D
:103AB0000601394308432843C0B201B0BDE8F08F86
:103AC0000A20C0B201B0BDE8F08F00002DE9F04738
:103AD00082B00E460DF106025E21044600F042F966
:103AE000BDF80610B1F5D77F10DBB1F5387F19DDD1
:103AF00040F28E4291422DDC40F2E122914235D0DB
:103B000040F2E132914217D048E000BF5F2917DC54
:103B10001D2933D01E2901D051293FD11425002859
:103B20003CD12DE0B1F5D77F24D0B1F5E67F1DD093
:103B300040F2D922914231D1C82578BB20E000BFA4
:103B4000602903D0AD2915D0D62927D1212528BB3E
:103B500016E000BF40F28F42914203D040F29152F2
:103B600091421BD14FF4FA75C0B909E06425A8B998
:103B700006E000BF322588B902E000BF0F2568B912
:103B8000012E0FD0022E09D140F60E6840F60D79B5
:103B90004FF0B80A0D270F260A220CE0012002B0D0
:103BA000BDE8F08740F2066840F205794FF0380A28
:103BB00005270726142220464B2100F013F9204642
:103BC0006021324600F00EF9204663213A4600F0AB
:103BD00009F920466921524600F004F9204678216F
:103BE0004A4600F03DF920467A21424600F038F975
:103BF00010B102B0BDE8F0872046294600F004F875
:103C000002B0BDE8F087000070B582B00E460DF13D
:103C100007024B21044600F089F89DF8071005467D
:103C20000A290FD1632E4FF001002FDC142E00F073
:103C30004580212E00F04C80322E40F07180C62647
:103C4000AD2263E0632E4FF001002BDCA6F10F01E3
:103C5000232900F2658027261D22DFE801F0576145
:103C60006161611361616161616161616161616192
:103C70004361616161616161616161616161616152
:103C8000614700BF6E26512240E000BF642E19D06C
:103C9000C82E21D0B6F5FA7F42D140F2A44640F2B8
:103CA0008F4233E0642E27D0C82E2BD0B6F5FA7F92
:103CB00036D140F2C15640F2915227E022261E2210
:103CC00024E000BF4FF4F5764FF4E6721EE000BF2B
:103CD0006E2660221AE000BF4FF43E7640F2D922F1
:103CE00014E000BF6E26D62210E000BF4FF4F47639
:103CF0004FF4D7720AE000BF4FF4627640F2E1223F
:103D000004E000BF40F2964640F2E13220465E21D8
:103D100000F0A6F820466121324600F0A1F82846BE
:103D200002B070BD8721402200F05CB880B584B03D
:103D300094460A4640F20011C2F2000109680346A7
:103D40004FF0C80E0120CDE9010E08461946102398
:103D5000CDF800C0FDF78EF9002818BF0120400003
:103D600004B080BDB0B584B014460A4640F20011DC
:103D7000C2F2000109680346C820022502900846E5
:103D80001946102300940195FDF774F910B12846E7
:103D900004B0B0BD2088002500BA000C2080284661
:103DA00004B0B0BD80B584B08E4640F20011C2F2BE
:103DB0000001096894460246C8209BB2CDE9013053
:103DC0000846114672461023CDF800C0FDF752F99F
:103DD000002818BF0120400004B080BD0846FCF751
:103DE00073BC000080B584B00B46014640F2001061
:103DF000C2F2000000688DF80F204FF0010E0DF1A7
:103E00000F024FF0C80CCDE9002E1A461023CDF852
:103E100008C0FDF7D5FA002818BF0120400004B003
:103E200080BD000080B584B00B46014640F2001012
:103E300012BAC2F20000006803924FF0040E03AA07
:103E40004FF0C80CCDE9002E1A461023CDF808C05B
:103E5000FDF7B6FA002818BF0120400004B080BD6D
:103E600080B584B00B46014640F2001052BAC2F24F
:103E700000000068ADF80E204FF0020E0DF10E02AA
:103E80004FF0C80CCDE9002E1A461023CDF808C01B
:103E9000FDF796FA002818BF0120400004B080BD4D
:103EA0002DE9F04F8DB040F600404FF00008C4F20D
:103EB000010010210122CDF82880FCF72FFDFCF72E
:103EC00033FD04460BAD0027002600BFF80717D1CD
:103ED0000220FCF7F9FB5220E5212A468DF82C80C0
:103EE000FFF724FF9DF82C700643FCF71DFD001B17
:103EF0006428EBD91426F0B20DB0BDE8F08F00BFF6
:103F0000002EF8D16420FCF7DFFB0AAA522040F211
:103F10000F110423FFF746FF9DF828000126EA2829
:103F2000E9D19DF82900CC28E5D19DF82A00102878
:103F3000E1D15220FFF758FD099052201E21842222
:103F4000FFF78EFF08905220202100220024FFF767
:103F500087FF0790522022210022FFF781FF069061
:103F6000522018210022FFF77BFF059052201A21D2
:103F70000022FFF775FF0490522016210022FFF760
:103F80006FFF039052200221FFF7A0FD02900DF178
:103F90002D0252204B21FFF7C9FE9DF82D500190B4
:103FA00040F2E13252205E210A2D08BF40F2D922B0
:103FB000FFF756FF40F29642522061210A2D08BFBA
:103FC0004FF43E72FFF74CFF0DF12E025220DE211E
:103FD000FFF7C8FEBDF82E1081466FF39F21D22057
:103FE0004843ADF82E1000F020FD43F23333C3F602
:103FF000F1734FF0333200F02BFD00F0E9FC024684
:1040000052206C21FFF70EFF0DF1310252204621A4
:104010008DF83140FFF78AFE9DF83100462100F00F
:10402000900252208DF83120FFF7DCFE82465220AC
:1040300072214FF47A62FFF713FF834652207421F6
:1040400040F6B832FFF70CFF04460DF13202522061
:104050003021FFF76BFE9DF83210054601F0EF00AE
:104060008DF8320041F0100252203021FFF7BAFEE5
:1040700006460DF1330252204FF49F71FFF756FEB2
:104080000746C7208DF8330052207F21C722FFF753
:10409000A9FE804652208021FF22FFF7A3FEDDE922
:1040A00008211143079A1143069A1143059A1143B7
:1040B000049A1143039A1143029A1143019A11433E
:1040C00041EA090141EA0A0141EA0B01214329437E
:1040D0003143394341EA080141EA0006F0B20DB02C
:1040E000BDE8F08F2DE9F04182B0044640F6004073
:1040F000C4F2010010212246FCF710FC4FF000082A
:10410000012C4FF000071CD1FCF70EFC04460DF10A
:1041100007050026002700BFF00712D10220FCF798
:10412000D3FA5220E5212A468DF80780FFF7FEFDDD
:104130009DF807600743FCF7F7FB001B6528EBD3EE
:104140001427F8B202B0BDE8F08100004EF60C5022
:10415000BFF34F8FCEF200000168042201F4E0614A
:10416000C0F2FA5211430160BFF34F8F00BF00BF8E
:1041700000BF00BFFAE7000040F2FC01C2F20001FC
:1041800008607047FCF7A0BAF0B583B0044607207A
:104190000021002600F090F801A91A20062200F064
:1041A00025F840F20000C2F20000C08800F092FE44
:1041B0000546BDF904002660BDF90660BDF908702A
:1041C00000F070FE294600F077FD6060304600F098
:1041D00069FE294600F070FDA060384600F062FEDE
:1041E000294600F069FDE06003B0F0BD2DE9F04123
:1041F00082B040F2FC07C2F200070D46396814464F
:104200008DF807004FF448780DF107020846502159
:104210000123CDF800800126FCF73EFE20B1304698
:1042200002B0BDE8F08100BF386850212A4623461D
:10423000CDF80080FCF730FC0646002818BF0126A8
:10424000304602B0BDE8F08110B504463D2021465D
:1042500000F032F80A20002C08BF1920BDE81040F9
:10426000FFF790BF80B582B03F20202100F024F8F6
:1042700040F2EE20FFF786FF00200DF1070101223A
:104280008DF80700FFF7B2FF9DF80700A02811D1B5
:104290000720002100F010F83F20002100F00CF86A
:1042A0003D20002100F008F81920FFF76BFF0A20DD
:1042B000FFF768FF02B080BD80B582B08DF80600C0
:1042C00040F2FC00C2F2000000688DF807104FF4C5
:1042D000487C0DF1060250210223CDF800C0FCF706
:1042E000DBFD40F200120423C100C0F203220428C7
:1042F00038BF22FA01F3D8B202B080BD92B0FDF708
:10430000AFF90920002408904FF480300225CDE950
:104310000904CDE90F504FF480200121119008A825
:104320000D94CDE90B440C910E91FDF747FB28B19C
:10433000EFF3108072B600BFFEE700BF0F20CDE99B
:1043400002054FF48060CDE9050002A80021049425
:10435000FDF72EFA20B1EFF3108072B6FEE700BF32
:1043600041F218084FF0000AC4F20208CDE90AAA87
:10437000CDE908AAD8F8000040F6004640F0100049
:10438000C8F80000D8F80000C4F2010600F01000E0
:1043900002900298D8F8000006F5806740F02000EF
:1043A000C8F80000D8F800004FF4005100F02000D9
:1043B00002900298D8F80000002240F00400C8F8EB
:1043C0000000D8F800004FF4005400F00400029000
:1043D0000298D8F8000040F00800C8F80000D8F8AB
:1043E000000000F00800029002983846FCF796FAA8
:1043F000304611210022FCF791FA08AD08940124FF
:104400004FF0020938462946CDE9094ACDF82C90EB
:10441000FCF77CF94FF4404008904FF0030B38460E
:104420002946CDF824B00197FCF770F949F6FF1042
:10443000CDE9080BA6F580602946FCF767F9304600
:104440002946CDE90844CDE90AA4FCF75FF9002725
:10445000C1F2110730462946CDF82090CDE90979FF
:10446000FCF754F94FF20C30CDE9080B30462946E1
:10447000FCF74CF9102008A981E8110430462946C0
:10448000CDF82C90FCF742F92020089007F5801019
:10449000CDE9090430462946FCF738F917200121F7
:1044A0000022FDF749F91720FDF734F958F8040CFC
:1044B00041F6802540F0010048F8040C58F8040C3F
:1044C000022100F00100089008980E200022C0F29E
:1044D0000605FDF731F90E20FDF71CF90F2002212A
:1044E0000022FDF729F90F20FDF714F940F29C1086
:1044F000A6F53441C2F200004FF4804280E8220465
:10450000C0E903A2C0E905AAC0E907AAFCF712FAAC
:1045100020B1EFF3108072B6FEE700BF40F2382002
:10452000DDF8048006F53051C2F200000C234FF490
:10453000E13280E80604C0E903AAC0E9053AC0F800
:104540001CA0FEF7F3FA28B1EFF3108072B600BF9B
:10455000FEE700BF40F24810A6F53841C2F2000065
:1045600000244FF48042C0E90015C0E90244C0E9CC
:104570000424C0E906440462FCF7DCF920B1EFF33F
:10458000108072B6FEE700BF40F2F010C2F20000E9
:104590004FF0804113230B94CDE90944CDE9024447
:1045A00045F6BF5280E81600C0E903348461FDF788
:1045B0005FFC28B1EFF3108072B600BFFEE700BFCA
:1045C0004FF48050089040F2F010C2F2000008A9A9
:1045D000FDF724FD20B1EFF3108072B6FEE700BFB7
:1045E00040F2F010C2F2000002A9FDF701FC28B170
:1045F000EFF3108072B600BFFEE700BF40F2800903
:10460000C2F20009A6F55C41484640F81C1F04218F
:1046100040F6FE22C0E90112FCF7DEFF20B1EFF305
:10462000108072B6FEE700BF40464FF400510022F2
:10463000FCF774F9304601210122FCF76FF93220B2
:10464000FCF742F840464FF400510122FCF766F9AE
:1046500040F2F010C2F20000FDF7A8FC40F2382052
:10466000C2F2000049460122FDF764FED9F8380085
:10467000016821F00401016040F29C10C2F20000C8
:10468000FFF77AFDFFF7EEFD0820FFF7DDFD4FF4A1
:104690007A70FCF719F808A8FFF776FDDDE908063F
:1046A000DDE90A12C9E90A06C9E90C1230460021FF
:1046B00000F0EFFA50B948F20001C4F2B4313046CC
:1046C00000F0D2FA10B9C9F814600CE040F2BB1047
:1046D000ADF8200040F23820C2F2000008A9022202
:1046E000C823FEF71DFB40F24810C2F2000000F0A4
:1046F00069F9FFF7D5FB5220FFF714FB89F8050095
:1047000060B140F2BB20ADF8200040F23820C2F288
:10471000000008A90222C823FEF702FB40F2382A53
:10472000C2F2000A08AF4FF0000B4BF2BB2640F676
:10473000B93499F80200002840F0AD8009E000BFCC
:1047400009F11C00FCF778FF99F80200002840F0FE
:10475000A2803846FFF718FDDDE90808DDE90A12F6
:10476000C9E90A08C9E90C124046002100F091FA93
:10477000B0B948F200014046C4F2B43100F082FA08
:1047800070B100214046C4F2B43189F804B000F0A1
:104790006BFA00281CBF40F20008C4F2B43878E07D
:1047A00099F8040040F600460130C4F2010689F889
:1047B0000400304601210022FCF7B0F80A20FBF784
:1047C00083FF304601210122FCF7A8F83220FBF7D5
:1047D0007BFF41F21801C4F2020151F8080C40F4C9
:1047E000800041F8080C51F8080C20F4800041F8D2
:1047F000080C40F29C10C2F20000FFF7BDFCFFF76E
:1048000031FD0820FFF720FD4FF49670FBF75CFFA9
:104810003846FFF7B9FCDDE90808DDE90A12C9E905
:104820000A08C9E90C124046002100F032FAB8B972
:1048300048F200014046C4F2B43100F015FA78B9EC
:1048400000214046C4F2B43189F804B000F00CFAFB
:1048500000281CBF40F20008C4F2B43817E000BFC3
:1048600099F8040005280CD3012089F8020040F2D1
:10487000BB30ADF82000504639460222C823FEF76F
:104880004FFA40F21800C2F20000D0F800804BF25C
:10489000BB26C9F8108099F8030001281DD199F8AA
:1048A0000200D0B9D9F810004AF2BB11ADF82010BF
:1048B00000EB102101EB1041CDF8220001EB10605C
:1048C0006FF05C01081A8DF8260050463946072221
:1048D0006423FEF725FA89F803B099F80900012846
:1048E0001AD1B9F80C0000F0F5FA00EB102101EB39
:1048F0001041CDF8220001EB10606FF06D01081A35
:104900008DF826005046394607226423ADF8206012
:10491000FEF706FA89F809B0FCF706F8D9F818107E
:10492000401AA04246D399F80A00022842D85220E1
:1049300040F20F113A460423CDF820B0FFF732FAC7
:104940009DF82000EA280BD19DF82100CC2807D142
:104950009DF82200102803D189F80AB026E000BF94
:1049600099F80A00013089F80A000020FFF7BAFB25
:104970000A20FBF7A9FE0120FFF7B4FB0A20FBF792
:10498000A3FEFFF78DFA5220FFF7CCF999F80A1031
:1049900089F80500032909D340F2BB40ADF80800AF
:1049A000504602A90222C823FEF7BAF9FBF7BCFF62
:1049B000C9F8180099F8010001287FF4C1AEFFF78B
:1049C000C5FB000040F20011C2F200010860704710
:1049D0004FEA1153A3F58063D3F11E03A8BFD3F1AF
:1049E000200C08DB4FF0004242EAC12252EA50524A
:1049F00032FA03F0704709420BD4102BC4BF0020D9
:104A0000704703F5787CBCF1FF3F05D04FF0FF30D5
:104A100070474FF00000704770B500F0C3F800BF5A
:104A20004992248000207047F0E7B0FA80F310FA32
:104A300003F10AD0C3F11D0303F580634FEA03526B
:104A40004FEA415002EBD12170474FF00000704710
:104A500070B5DFF848C11CEA111E1EBF1CEA131511
:104A60009EEA0C0F95EA0C0F00F06F8081EA0304B8
:104A70004EEAD47EAE4421EA4C1123EA4C1341F4B1
:104A8000801143F48013AEF17F7EA1FB024CA0FBAA
:104A90000365361955EB0C05A1FB034C4CF10003E3
:104AA000A0FB021C16EB0C06654153F10003094202
:104AB00018BF46F0010613F4007F0BD14FEA033113
:104AC0004FEA053041EA155140EA165034036FF0C1
:104AD00003020AE04FEAC3214FEAC52041EA5551DB
:104AE00040EA5650F4026FF0020202EB2E4201EB54
:104AF000025585EACE710AD05FEA440C18BF24F053
:104B0000004450F1000041F1000120EAD47040F26D
:104B1000FE7C624500D270BDA84214BF4FF08044B5
:104B20004FF04044002E08BF0024BEF1806FA8BFA4
:104B3000A1F1C041BDE8704080F2828001F1C04126
:104B400001F000414FF0000070470CEA13159EEA97
:104B50000C0F18BF95EA0C0F06D081EA030E4FF038
:104B600000000EF0004170BD00F01CF88900013E0D
:104B700000F007B800F009B84FEA430C5FEA5C5C4C
:104B800008D081EA030100F05BB84FEA410C5FEA0C
:104B90005C5CF6D102494FF0000070470000FF074F
:104BA0000000F87F0EF1020E2EF0030E5EF8046B8B
:104BB000364205D4012A43EB030515F5001F12D830
:104BC000012841EB010C1CF5001F0CD80ED14FEA57
:104BD000D17C0CEB4C0C0CF1020C15F5001F08BF3E
:104BE0004CEBD37C04E04FF0080C01E04FEAD37C9F
:104BF0000CEB4C0526FA05F606F00706B6F1040C98
:104C000006D20EEB860CBDE870404CF0010C6047FC
:104C1000DFE80CF0090B02024FF00041A1F5002182
:104C20004FF0000070BD19461046012851EB0104F9
:104C300018BFD4F5001484BF002001F0004170BDFE
:104C40000808A0F500114FEA3101704710B500F0D7
:104C5000F5F80CBF0120002010BD10B500F0EEF8F3
:104C600014BF0120002010BD10B500F047F98CBF23
:104C70000120002010BD10B500F040F92CBF01202C
:104C8000002010BD10B500F06DF994BF0120002088
:104C900010BD10B500F066F934BF0120002010BD32
:104CA000401058BFC0F14040491058BFC1F14041C9
:104CB0008142EFF3008070474FF47F0C1CEAD01262
:104CC0001EBF1CEAD11392EA0C0F93EA0C0F00F0FE
:104CD000858090EA010F48BF42F4807240F4000CD6
:104CE00041F400002CF07F4120F07F4000B5A2EBA2
:104CF000030281420FF2081CACEB504E9EF800E01C
:104D0000C0F100004FEA4E0E00FB0EFC38BF490018
:104D10004FEA2C1C0CFB0EF34FEACE1E0EEB635E2B
:104D20004FEA112C0EFB0CFC4FEAC1214FEA1C5339
:104D300000FB031102F5FA024FEA112C0EFB0CFCEA
:104D40004FEA01314FEADC4C00FB0C1142EB2242EE
:104D5000C14228BF09184CEB03335DF804EB10EB9C
:104D6000410143EBC250B2F57C0F38BF704729D5E3
:104D700012F0F00F1CBF00F1C04000F0004070477F
:104D8000008182838485868788898B8C8D8E8F9124
:104D90009293959697999A9C9D9FA0A2A3A5A7A848
:104DA000AAACAEB0B2B3B5B7B9BCBEC0C2C5C7C974
:104DB000CCCED1D4D7D9DCDFE2E6E9ECF0F3F7FAD8
:104DC000FE0000004FEA400C0CF1807CBCF17E4FED
:104DD00028BF7047B0F1C04000F03EB90CEAD113D3
:104DE00090EA010F48BF42F48072624538BF6345C4
:104DF00007D213F47F0F16D080EA010000F00040C4
:104E0000704710B500F0E2F8097EFC3E00F005B8EE
:104E100080EA010000F00040704780EA010000F0E5
:104E2000004000F019B912F47F0F04BF0248704728
:104E300080EA010000F010B90000C07F50EA010CC8
:104E400000F113801CF5000F58BFBCF5000F01D412
:104E50008842704707D710F5000F58BF11F5000FB3
:104E600015D488427047894270471CF5000F04D55D
:104E7000BCF5000FF7D5814270474FF0807C1CEBEA
:104E8000400F38BF1CEB410F01D28142704710B573
:104E900000F09CF8922449004FF000504FF08051F0
:104EA000FFF7FEBE10F0004148BF4042B0FA80F369
:104EB00010FA03F2C3F19D030BD051EAC35101EB89
:104EC0001220530638BF704700F1010008BF20F0E0
:104ED00001007047B0FA80F310FA03F2C3F19D03AA
:104EE0000AD0D90501EB1220530638BF704700F1F4
:104EF000010008BF20F001007047000050EA010CDB
:104F000000F113801CF5000F58BFBCF5000F01D451
:104F10008842704707D710F5000F58BF11F5000FF2
:104F200015D488427047894270471CF5000F04D59C
:104F3000BCF5000FF7D5814270474FF0807C1CEB29
:104F4000400F38BF1CEB410F01D28142704710B5B2
:104F500000F03CF8922449004FF080504FF000518F
:104F6000FFF79EBE50EA010C00F113801CF5000F04
:104F700058BFBCF5000F01D48842704707D710F521
:104F8000000F58BF11F5000F15D4884270478942B1
:104F900070471CF5000F04D5BCF5000FF7D5814212
:104FA00070474FF0807C1CEB400F38BF1CEB410F6B
:104FB00001D28142704710B500F008F892244900F0
:104FC0004FF000504FF08051FFF76ABE0EF1020E15
:104FD0002EF0030E5EF8044B244204D44FEA410243
:104FE000B2F17F4F11D84FEA4003B3F17F4F0CD895
:104FF0000ED14FEAD07C0CEB4C0C0CF1020CB2F150
:105000007F4F08BF4CEBD17C04E04FF0080C01E06F
:105010004FEAD17C0CEB4C0324FA03F404F00704B0
:10502000B4F1040C06D20EEB840CBDE810404CF039
:10503000010C6047DFE80CF0070802024FF0004067
:10504000A0F5800010BD0846420018BFD2F1807262
:1050500088BF00F0004010BDFF2141EAD050C005DC
:105060007047000000000000000001020304060772
:105070000809000000000102030401020000000111
:1050800002000208000810010100000000FF000FEC
:105090000000000000200B0000020A2100000500B3
:1050A000000000C8000038FF010008000001CC0F1C
:1050B00001F10D0168008008B8000000000F8900B0
:1050C000000000000000010F0D0E0E000002C7FFDF
:1050D0009B00000001000002030405060708090AFE
:1050E0000B0C0D0E0F1010FFFFFF0502040107034C
:1050F00000FFFF090DFFFFFFFF0A06FFFF0B0C007B
:10510000205100080000002020000000500100088D
:1051100040510008200000206808000070010008CD
:1051200064001000100010000040000001000000AA
:105130001000000000127A0000C079440100000055
:04000005080000ED02
:00000001FF
